{
  "contractName": "LiquidityMigrator",
  "abi": [
    {
      "inputs": [
        {
          "internalType": "address",
          "name": "_router",
          "type": "address"
        },
        {
          "internalType": "address",
          "name": "_pair",
          "type": "address"
        },
        {
          "internalType": "address",
          "name": "_routerFork",
          "type": "address"
        },
        {
          "internalType": "address",
          "name": "_pairFork",
          "type": "address"
        },
        {
          "internalType": "address",
          "name": "_bonusToken",
          "type": "address"
        }
      ],
      "stateMutability": "nonpayable",
      "type": "constructor"
    },
    {
      "inputs": [],
      "name": "admin",
      "outputs": [
        {
          "internalType": "address",
          "name": "",
          "type": "address"
        }
      ],
      "stateMutability": "view",
      "type": "function"
    },
    {
      "inputs": [],
      "name": "bonusToken",
      "outputs": [
        {
          "internalType": "contract BonusToken",
          "name": "",
          "type": "address"
        }
      ],
      "stateMutability": "view",
      "type": "function"
    },
    {
      "inputs": [],
      "name": "migrationDone",
      "outputs": [
        {
          "internalType": "bool",
          "name": "",
          "type": "bool"
        }
      ],
      "stateMutability": "view",
      "type": "function"
    },
    {
      "inputs": [],
      "name": "pair",
      "outputs": [
        {
          "internalType": "contract IUniswapV2Pair",
          "name": "",
          "type": "address"
        }
      ],
      "stateMutability": "view",
      "type": "function"
    },
    {
      "inputs": [],
      "name": "pairFork",
      "outputs": [
        {
          "internalType": "contract IUniswapV2Pair",
          "name": "",
          "type": "address"
        }
      ],
      "stateMutability": "view",
      "type": "function"
    },
    {
      "inputs": [],
      "name": "router",
      "outputs": [
        {
          "internalType": "contract IUniswapV2Router02",
          "name": "",
          "type": "address"
        }
      ],
      "stateMutability": "view",
      "type": "function"
    },
    {
      "inputs": [],
      "name": "routerFork",
      "outputs": [
        {
          "internalType": "contract IUniswapV2Router02",
          "name": "",
          "type": "address"
        }
      ],
      "stateMutability": "view",
      "type": "function"
    },
    {
      "inputs": [
        {
          "internalType": "address",
          "name": "",
          "type": "address"
        }
      ],
      "name": "unclaimedBalances",
      "outputs": [
        {
          "internalType": "uint256",
          "name": "",
          "type": "uint256"
        }
      ],
      "stateMutability": "view",
      "type": "function"
    },
    {
      "inputs": [
        {
          "internalType": "uint256",
          "name": "amount",
          "type": "uint256"
        }
      ],
      "name": "deposit",
      "outputs": [],
      "stateMutability": "nonpayable",
      "type": "function"
    },
    {
      "inputs": [],
      "name": "migrate",
      "outputs": [],
      "stateMutability": "nonpayable",
      "type": "function"
    },
    {
      "inputs": [],
      "name": "claimLptokens",
      "outputs": [],
      "stateMutability": "nonpayable",
      "type": "function"
    }
  ],
  "bytecode": "0x60806040523480156200001157600080fd5b5060405162001833380380620018338339818101604052810190620000379190620001de565b84600160006101000a81548173ffffffffffffffffffffffffffffffffffffffff021916908373ffffffffffffffffffffffffffffffffffffffff160217905550836000806101000a81548173ffffffffffffffffffffffffffffffffffffffff021916908373ffffffffffffffffffffffffffffffffffffffff16021790555082600260006101000a81548173ffffffffffffffffffffffffffffffffffffffff021916908373ffffffffffffffffffffffffffffffffffffffff16021790555081600360006101000a81548173ffffffffffffffffffffffffffffffffffffffff021916908373ffffffffffffffffffffffffffffffffffffffff16021790555080600460006101000a81548173ffffffffffffffffffffffffffffffffffffffff021916908373ffffffffffffffffffffffffffffffffffffffff16021790555033600560006101000a81548173ffffffffffffffffffffffffffffffffffffffff021916908373ffffffffffffffffffffffffffffffffffffffff1602179055505050505050620002ae565b600081519050620001d88162000294565b92915050565b600080600080600060a08688031215620001f757600080fd5b60006200020788828901620001c7565b95505060206200021a88828901620001c7565b94505060406200022d88828901620001c7565b93505060606200024088828901620001c7565b92505060806200025388828901620001c7565b9150509295509295909350565b60006200026d8262000274565b9050919050565b600073ffffffffffffffffffffffffffffffffffffffff82169050919050565b6200029f8162000260565b8114620002ab57600080fd5b50565b61157580620002be6000396000f3fe608060405234801561001057600080fd5b50600436106100a95760003560e01c80638bf6afaf116100715780638bf6afaf146101305780638fd3ab8014610160578063a8aa1b311461016a578063b6b55f2514610188578063f851a440146101a4578063f887ea40146101c2576100a9565b80630d81a570146100ae57806341d4a1ab146100cc57806352c7262e146100ea57806359201402146100f4578063766faf3614610112575b600080fd5b6100b66101e0565b6040516100c39190611297565b60405180910390f35b6100d46101f3565b6040516100e191906112b2565b60405180910390f35b6100f2610219565b005b6100fc61042e565b60405161010991906112cd565b60405180910390f35b61011a610454565b60405161012791906112e8565b60405180910390f35b61014a60048036038101906101459190610e48565b61047a565b6040516101579190611383565b60405180910390f35b610168610492565b005b610172610b81565b60405161017f91906112cd565b60405180910390f35b6101a2600480360381019061019d9190610ec3565b610ba5565b005b6101ac610d93565b6040516101b9919061112f565b60405180910390f35b6101ca610db9565b6040516101d791906112e8565b60405180910390f35b600760009054906101000a900460ff1681565b600460009054906101000a900473ffffffffffffffffffffffffffffffffffffffff1681565b6000600660003373ffffffffffffffffffffffffffffffffffffffff1673ffffffffffffffffffffffffffffffffffffffff16815260200190815260200160002054101561029c576040517f08c379a000000000000000000000000000000000000000000000000000000000815260040161029390611343565b60405180910390fd5b60011515600760009054906101000a900460ff161515146102f2576040517f08c379a00000000000000000000000000000000000000000000000000000000081526004016102e990611363565b60405180910390fd5b6000600660003373ffffffffffffffffffffffffffffffffffffffff1673ffffffffffffffffffffffffffffffffffffffff1681526020019081526020016000205490506000600660003373ffffffffffffffffffffffffffffffffffffffff1673ffffffffffffffffffffffffffffffffffffffff16815260200190815260200160002081905550600360009054906101000a900473ffffffffffffffffffffffffffffffffffffffff1673ffffffffffffffffffffffffffffffffffffffff1663a9059cbb33836040518363ffffffff1660e01b81526004016103d892919061126e565b602060405180830381600087803b1580156103f257600080fd5b505af1158015610406573d6000803e3d6000fd5b505050506040513d601f19601f8201168201806040525081019061042a9190610e9a565b5050565b600360009054906101000a900473ffffffffffffffffffffffffffffffffffffffff1681565b600260009054906101000a900473ffffffffffffffffffffffffffffffffffffffff1681565b60066020528060005260406000206000915090505481565b600560009054906101000a900473ffffffffffffffffffffffffffffffffffffffff1673ffffffffffffffffffffffffffffffffffffffff163373ffffffffffffffffffffffffffffffffffffffff1614610522576040517f08c379a000000000000000000000000000000000000000000000000000000000815260040161051990611303565b60405180910390fd5b60001515600760009054906101000a900460ff16151514610578576040517f08c379a000000000000000000000000000000000000000000000000000000000815260040161056f90611323565b60405180910390fd5b60008060009054906101000a900473ffffffffffffffffffffffffffffffffffffffff1673ffffffffffffffffffffffffffffffffffffffff16630dfe16816040518163ffffffff1660e01b815260040160206040518083038186803b1580156105e157600080fd5b505afa1580156105f5573d6000803e3d6000fd5b505050506040513d601f19601f820116820180604052508101906106199190610e71565b905060008060009054906101000a900473ffffffffffffffffffffffffffffffffffffffff1673ffffffffffffffffffffffffffffffffffffffff1663d21220a76040518163ffffffff1660e01b815260040160206040518083038186803b15801561068457600080fd5b505afa158015610698573d6000803e3d6000fd5b505050506040513d601f19601f820116820180604052508101906106bc9190610e71565b905060008060009054906101000a900473ffffffffffffffffffffffffffffffffffffffff1673ffffffffffffffffffffffffffffffffffffffff166370a08231306040518263ffffffff1660e01b815260040161071a919061112f565b60206040518083038186803b15801561073257600080fd5b505afa158015610746573d6000803e3d6000fd5b505050506040513d601f19601f8201168201806040525081019061076a9190610eec565b9050600160009054906101000a900473ffffffffffffffffffffffffffffffffffffffff1673ffffffffffffffffffffffffffffffffffffffff1663baa2abde84848460008030426040518863ffffffff1660e01b81526004016107d49796959493929190611181565b6040805180830381600087803b1580156107ed57600080fd5b505af1158015610801573d6000803e3d6000fd5b505050506040513d601f19601f820116820180604052508101906108259190610f15565b505060008373ffffffffffffffffffffffffffffffffffffffff166370a08231306040518263ffffffff1660e01b8152600401610862919061112f565b60206040518083038186803b15801561087a57600080fd5b505afa15801561088e573d6000803e3d6000fd5b505050506040513d601f19601f820116820180604052508101906108b29190610eec565b905060008373ffffffffffffffffffffffffffffffffffffffff166370a08231306040518263ffffffff1660e01b81526004016108ef919061112f565b60206040518083038186803b15801561090757600080fd5b505afa15801561091b573d6000803e3d6000fd5b505050506040513d601f19601f8201168201806040525081019061093f9190610eec565b90508473ffffffffffffffffffffffffffffffffffffffff1663095ea7b3600260009054906101000a900473ffffffffffffffffffffffffffffffffffffffff16846040518363ffffffff1660e01b815260040161099e92919061126e565b602060405180830381600087803b1580156109b857600080fd5b505af11580156109cc573d6000803e3d6000fd5b505050506040513d601f19601f820116820180604052508101906109f09190610e9a565b508373ffffffffffffffffffffffffffffffffffffffff1663095ea7b3600260009054906101000a900473ffffffffffffffffffffffffffffffffffffffff16836040518363ffffffff1660e01b8152600401610a4e92919061126e565b602060405180830381600087803b158015610a6857600080fd5b505af1158015610a7c573d6000803e3d6000fd5b505050506040513d601f19601f82011682018060405250810190610aa09190610e9a565b50600260009054906101000a900473ffffffffffffffffffffffffffffffffffffffff1673ffffffffffffffffffffffffffffffffffffffff1663e8e3370086868585878730426040518963ffffffff1660e01b8152600401610b0a9897969594939291906111f0565b606060405180830381600087803b158015610b2457600080fd5b505af1158015610b38573d6000803e3d6000fd5b505050506040513d601f19601f82011682018060405250810190610b5c9190610f51565b5050506001600760006101000a81548160ff0219169083151502179055505050505050565b60008054906101000a900473ffffffffffffffffffffffffffffffffffffffff1681565b60001515600760009054906101000a900460ff16151514610bfb576040517f08c379a0000000000000000000000000000000000000000000000000000000008152600401610bf290611323565b60405180910390fd5b60008054906101000a900473ffffffffffffffffffffffffffffffffffffffff1673ffffffffffffffffffffffffffffffffffffffff166323b872dd3330846040518463ffffffff1660e01b8152600401610c589392919061114a565b602060405180830381600087803b158015610c7257600080fd5b505af1158015610c86573d6000803e3d6000fd5b505050506040513d601f19601f82011682018060405250810190610caa9190610e9a565b50600460009054906101000a900473ffffffffffffffffffffffffffffffffffffffff1673ffffffffffffffffffffffffffffffffffffffff166340c10f1933836040518363ffffffff1660e01b8152600401610d0892919061126e565b600060405180830381600087803b158015610d2257600080fd5b505af1158015610d36573d6000803e3d6000fd5b5050505080600660003373ffffffffffffffffffffffffffffffffffffffff1673ffffffffffffffffffffffffffffffffffffffff1681526020019081526020016000206000828254610d8991906113af565b9250508190555050565b600560009054906101000a900473ffffffffffffffffffffffffffffffffffffffff1681565b600160009054906101000a900473ffffffffffffffffffffffffffffffffffffffff1681565b600081359050610dee816114fa565b92915050565b600081519050610e03816114fa565b92915050565b600081519050610e1881611511565b92915050565b600081359050610e2d81611528565b92915050565b600081519050610e4281611528565b92915050565b600060208284031215610e5a57600080fd5b6000610e6884828501610ddf565b91505092915050565b600060208284031215610e8357600080fd5b6000610e9184828501610df4565b91505092915050565b600060208284031215610eac57600080fd5b6000610eba84828501610e09565b91505092915050565b600060208284031215610ed557600080fd5b6000610ee384828501610e1e565b91505092915050565b600060208284031215610efe57600080fd5b6000610f0c84828501610e33565b91505092915050565b60008060408385031215610f2857600080fd5b6000610f3685828601610e33565b9250506020610f4785828601610e33565b9150509250929050565b600080600060608486031215610f6657600080fd5b6000610f7486828701610e33565b9350506020610f8586828701610e33565b9250506040610f9686828701610e33565b9150509250925092565b610fa981611405565b82525050565b610fb881611417565b82525050565b610fc78161144d565b82525050565b610fd681611471565b82525050565b610fe581611495565b82525050565b610ff4816114b9565b82525050565b6000611007600a8361139e565b91507f4f4e4c592041444d494e000000000000000000000000000000000000000000006000830152602082019050919050565b600061104760168361139e565b91507f6d6967726174696f6e20616c726561647920646f6e65000000000000000000006000830152602082019050919050565b600061108760288361139e565b91507f596f75206172652062726f6b652c207768617420646f20796f752077616e742060008301527f746f20636c61696d0000000000000000000000000000000000000000000000006020830152604082019050919050565b60006110ed60168361139e565b91507f4d6967726174696f6e206e6f7420646f6e6520796574000000000000000000006000830152602082019050919050565b61112981611443565b82525050565b60006020820190506111446000830184610fa0565b92915050565b600060608201905061115f6000830186610fa0565b61116c6020830185610fa0565b6111796040830184611120565b949350505050565b600060e082019050611196600083018a610fa0565b6111a36020830189610fa0565b6111b06040830188611120565b6111bd6060830187610feb565b6111ca6080830186610feb565b6111d760a0830185610fa0565b6111e460c0830184611120565b98975050505050505050565b600061010082019050611206600083018b610fa0565b611213602083018a610fa0565b6112206040830189611120565b61122d6060830188611120565b61123a6080830187611120565b61124760a0830186611120565b61125460c0830185610fa0565b61126160e0830184611120565b9998505050505050505050565b60006040820190506112836000830185610fa0565b6112906020830184611120565b9392505050565b60006020820190506112ac6000830184610faf565b92915050565b60006020820190506112c76000830184610fbe565b92915050565b60006020820190506112e26000830184610fcd565b92915050565b60006020820190506112fd6000830184610fdc565b92915050565b6000602082019050818103600083015261131c81610ffa565b9050919050565b6000602082019050818103600083015261133c8161103a565b9050919050565b6000602082019050818103600083015261135c8161107a565b9050919050565b6000602082019050818103600083015261137c816110e0565b9050919050565b60006020820190506113986000830184611120565b92915050565b600082825260208201905092915050565b60006113ba82611443565b91506113c583611443565b9250827fffffffffffffffffffffffffffffffffffffffffffffffffffffffffffffffff038211156113fa576113f96114cb565b5b828201905092915050565b600061141082611423565b9050919050565b60008115159050919050565b600073ffffffffffffffffffffffffffffffffffffffff82169050919050565b6000819050919050565b60006114588261145f565b9050919050565b600061146a82611423565b9050919050565b600061147c82611483565b9050919050565b600061148e82611423565b9050919050565b60006114a0826114a7565b9050919050565b60006114b282611423565b9050919050565b60006114c482611443565b9050919050565b7f4e487b7100000000000000000000000000000000000000000000000000000000600052601160045260246000fd5b61150381611405565b811461150e57600080fd5b50565b61151a81611417565b811461152557600080fd5b50565b61153181611443565b811461153c57600080fd5b5056fea26469706673582212204ed8736f38ba643fe4cfcab1f8565d535995e21c0d56282771cf51fe492b936164736f6c63430008000033",
  "immutableReferences": {},
  "source": "pragma solidity ^0.8.0;\r\nimport '@openzeppelin/contracts/token/ERC20/IERC20.sol';\r\nimport '@uniswap/v2-periphery/contracts/interfaces/IUniswapV2Router02.sol';\r\nimport './IUniswapV2Pair.sol';\r\nimport './BonusToken.sol';\r\n\r\ncontract LiquidityMigrator {\r\n    IUniswapV2Pair public pair;\r\n    IUniswapV2Router02 public router;\r\n    IUniswapV2Router02 public routerFork;\r\n    IUniswapV2Pair public pairFork;\r\n    BonusToken public bonusToken;\r\n    address public admin;\r\n    mapping(address => uint) public unclaimedBalances;\r\n    bool public migrationDone;\r\n\r\n    constructor(\r\n        address _router,\r\n        address _pair,\r\n        address _routerFork,\r\n        address _pairFork,\r\n        address _bonusToken\r\n    ) public {\r\n        router = IUniswapV2Router02(_router);\r\n        pair = IUniswapV2Pair(_pair);\r\n        routerFork = IUniswapV2Router02(_routerFork);\r\n        pairFork = IUniswapV2Pair(_pairFork);\r\n        bonusToken = BonusToken(_bonusToken);\r\n        admin = msg.sender;\r\n    }\r\n\r\n    function deposit(uint amount) external {\r\n        require(migrationDone == false, 'migration already done');\r\n        pair.transferFrom(msg.sender, address (this), amount);\r\n        bonusToken.mint(msg.sender, amount);\r\n        unclaimedBalances[msg.sender] += amount;\r\n    }\r\n\r\n    function migrate() external {\r\n        require(msg.sender == admin, 'ONLY ADMIN');\r\n        require(migrationDone == false, 'migration already done');\r\n        IERC20 token0 = IERC20(pair.token0());\r\n        IERC20 token1 = IERC20(pair.token1());\r\n        uint totalBalance = pair.balanceOf(address (this));\r\n        router.removeLiquidity(\r\n            address (token0),\r\n            address (token1),\r\n            totalBalance,\r\n            0,\r\n            0,\r\n            address (this),\r\n            block.timestamp\r\n        );\r\n        uint token0Balance = token0.balanceOf(address (this));\r\n        uint token1Balance = token1.balanceOf(address (this));\r\n        token0.approve(address (routerFork), token0Balance);\r\n        token1.approve(address (routerFork), token1Balance);\r\n        routerFork.addLiquidity(\r\n            address (token0),\r\n            address (token1),\r\n            token0Balance,\r\n            token1Balance,\r\n            token0Balance,\r\n            token1Balance,\r\n            address (this),\r\n            block.timestamp\r\n        );\r\n        migrationDone = true;\r\n    }\r\n\r\n    function claimLptokens() external {\r\n        require(unclaimedBalances[msg.sender] >= 0, \"You are broke, what do you want to claim\");\r\n        require(migrationDone == true, 'Migration not done yet');\r\n        uint amountToSend = unclaimedBalances[msg.sender];\r\n        unclaimedBalances[msg.sender] = 0;\r\n        pairFork.transfer(msg.sender, amountToSend);\r\n    }\r\n}\r\n",
  "sourcePath": "C:\\Users\\User\\Desktop\\uniswap fork\\migrator\\contracts\\LiquidityMigrator.sol",
  "compiler": {
    "name": "solc",
    "version": "0.8.0+commit.c7dfd78e.Emscripten.clang"
  },
  "schemaVersion": "3.4.2",
  "updatedAt": "2021-08-05T11:39:39.898Z",
  "devdoc": {
    "kind": "dev",
    "methods": {},
    "version": 1
  },
  "userdoc": {
    "kind": "user",
    "methods": {},
    "version": 1
  }
}